:0C0000000C9441000C9400000C940000D3
:10000C000C9400000C9400000C9400000C94D40090
:10001C000C9400000C9400000C9400000C94000054
:10002C000C9400000C9400000C9400000C94000044
:10003C000C9400000C9400000C9400000C94000034
:10004C000C9400000C9400002C024B0230000100B8
:10005C0030000200300004002C024B02040060014E
:10006C005400030064015800030067015C000300A6
:10007C006A0160000000F894EE27ECBBF1E0FBBFD6
:10008C00EBBFE5BF8DE0A2E0BB27ED938A95E9F7C6
:10009C0080E094E0A0E6ED930197E9F7E8E6F0E064
:1000AC0085919591009761F0A591B591059015906A
:1000BC00BF01F00105900D920197E1F7FB01F0CF24
:1000CC00EFE5EDBFE4E0EEBFC0E6D1E00C946E00CE
:1000DC00EFEFEABBD898D998DA98E0E0EFBDEAE008
:1000EC00EEBDE0E0EDBDECBDE7BDE6BDE3ECEBBD88
:1000FC00EFE4EABDE0E0E9BDE8BDE0E1E9BFA0E680
:10010C00B1E00E941701EDE6F1E0FA93EA93A4E660
:10011C00B1E00E94C001E6E7F1E0FA93EA93A7E6AA
:10012C00B1E00E94C001EFE7F1E0FA93EA93AAE68E
:10013C00B1E00E94C001EDE6F1E0FA93EA93A1EF81
:10014C00B0E00E942102E6E7F1E0FA93EA93AAEF0D
:10015C00B0E00E942102E6E7F1E0FA93EA93AFEFF8
:10016C00B0E00E941602EFE7F1E0FA93EA93A4E004
:10017C00B1E00E942102EFE7F1E0FA93EA93A9E0E3
:10018C00B1E00E941602EFE7F1E0FA93EA93AEE0D9
:10019C00B1E00E940B027894FFCFFFCF0A921A9223
:1001AC00FA926A937A938A939A93AA93BA93EA935C
:1001BC00FA93EFB7EA930E942101E991EFBFF9910D
:1001CC00E991B991A9919991899179916991F99054
:1001DC00199009901895AA93D89B02C0D89801C081
:1001EC00D89AE1E023960895AA93D99AE0E0239651
:1001FC000895AA93D998E1E023960895AA93DA9AE0
:10020C00E0E023960895AA93DA98E0E02396089507
:10021C00AA93DA9B02C0DA9801C0DA9AE0E023963E
:10022C000895BA93AA93E881F981E0938801F09339
:10023C008901229608950E9464022AE831E003E0C5
:10024C00E02F0150E03011F40C94B201D9010E945E
:10025C006002E085E3701E2FEE0FEF93E0918801B2
:10026C00F0918901028013800E946002DF010E94DC
:10027C006002DF01F0010995AF91EA2BE3701E2FAC
:10028C00D9010E9460023896DF01E12FE3700E2E37
:10029C00EC91EC7FE029EC93D9010E946002E0859F
:1002AC00E47011F00C945F01133011F40C945F01A5
:1002BC0001C039C0D9010E9460023296DF01E12FE2
:1002CC00F0E0EE0FFF1FAE0FBF1F0E9460023097D1
:1002DC0011F40C949801D9010E9460023896FF9396
:1002EC00EF930E9460023296DF01E12FF0E0EE0FF7
:1002FC00FF1FAE0FBF1F0E946002FF93EF93D90147
:10030C000E946002FA93EA93A12FEF91FF91099555
:10031C00AF91BF91E170EE0FEE0F0E2EEC91EB7FD3
:10032C00E029EC9316C0133011F00C94A601D901FE
:10033C000E946002E085E47011F40C94A60101C0E7
:10034C0008C0D9010E9460023896DF01EC91EB7F66
:10035C00EC932E5F3F4F74CF0E9469022496089550
:10036C00BA93AA93E881F981AA81BB81ED93FC939E
:10037C0024960895BA93AA93AA81BB811896EC91FE
:10038C00E360EC93AA81BB811896EC91EB7FEC9324
:10039C00EA81FB81FA93EA93AA81BB810E94B601A0
:1003AC00A0918801B09189010E946002FF93EF93A4
:1003BC00A881B981EF91FF9109952397EAE8F1E0C3
:1003CC00E883F983E3E0EA83EA81E150EA83EF5FB3
:1003DC0011F40C940702A881B9810E946002309735
:1003EC0011F00C940102ED81FE81ED93FC93E1E0A0
:1003FC00239624960895E881F9813296E883F9834F
:10040C00E3CF2396E0E024960895BA93AA93E8816B
:10041C00F981AA81BB811296ED93FC9324960895E1
:10042C00BA93AA93E881F981AA81BB811496ED93C2
:10043C00FC9324960895BA93AA93E881F981AA8132
:10044C00BB811696ED93FC9324960895BA93AA93C8
:10045C00A881B9810E94600231960F01A081E881C8
:10046C00F981E281E095EA23D001EC93A881B9816E
:10047C000E94600232960F01A081E881F981E2812D
:10048C00EA2BD001EC9322960895BA93AA93A881F3
:10049C00B9810E946002A081E881F981E281EA239E
:1004AC00A0E00E945B0222960895EA17E1E009F4AD
:1004BC00EE270895ED91FC91119708953A932A93A4
:1004CC001A930A9308953B812A8119810881089512
:00000001FF
