:040000000C9441001B
:100004000C9400000C9400000C9400000C9400006C
:100014000C9400000C94BC000C9400000C940000A0
:100024000C9400000C9400000C9400000C9400004C
:100034000C9400000C9400000C9400000C9400003C
:100044000C9400000C9400000C9400000C9400002C
:1000540018023702300001003000020030000400B2
:1000640018023702040060015400030064015800C0
:10007400030067015C0003006A0160000000F8945B
:10008400EE27ECBBF1E0FBBFEBBFE5BF8DE0A2E0E8
:10009400BB27ED938A95E9F780E094E0A0E6ED9321
:1000A4000197E9F7E8E6F0E085919591009761F012
:1000B400A591B59105901590BF01F00105900D92A1
:1000C4000197E1F7FB01F0CFEFE5EDBFE4E0EEBF10
:1000D400C0E6D1E00C946E00EFEFEABBD898D99853
:1000E400DA98E0E0EFBDEAE0EEBDE0E0EDBDECBDA6
:1000F400E7BDE6BDE3ECEBBDEFE4EABDE0E0E9BD5E
:10010400E8BDE0E1E9BFA0E6B1E00E942501EDE62B
:10011400F1E0FA93EA93A4E6B1E00E94C201E2E7B7
:10012400F1E0FA93EA93A7E6B1E00E94C201E7E79F
:10013400F1E0FA93EA93AAE6B1E00E94C201EDE687
:10014400F1E0FA93EA93A9EDB0E00E940D02E2E730
:10015400F1E0FA93EA93AAEEB0E00E940D02E7E719
:10016400F1E0FA93EA93A6E0B1E00E940D027894DC
:10017400FFCFFFCF0A921A92FA926A937A938A93E4
:100184009A93AA93BA93EA93FA93EFB7EA930E94E5
:100194002F01E991EFBFF991E991B991A991999151
:1001A400899179916991F990199009901895AA9378
:1001B400E881E23011F00C94E700D89B02C0D89893
:1001C40001C0D89AE1E023960895E0E023960895CB
:1001D400AA93E881F0E0E230A0E0FA0711F00C9471
:1001E400F700D99AE0E023960895E130A0E0FA07F9
:1001F40011F00C940101D998E1E023960895E0E010
:100204002396089523960895AA93E881F0E0E230B6
:10021400A0E0FA0711F00C941101DA9A11C0E13050
:10022400A0E0FA0711F00C941901DA9809C030978C
:1002340011F00C942201DA9B02C0DA9801C0DA9A18
:10024400E0E023960895BA93AA93E881F981E093B4
:100254007C01F0937D01229608950E9450022EE7BE
:1002640031E003E0E02F0150E03011F40C94B401CC
:10027400D9010E944C02E481E3701E2FEE0FEF932C
:10028400E0917C01F0917D01028013800E944C0278
:10029400DF010E944C02DF01F0010995AF91EA2BC6
:1002A400E3701E2FD9010E944C023496DF01E12F26
:1002B400E3700E2EEC91EC7FE029EC93D9010E94BF
:1002C4004C02E481E47011F00C946D01133011F4CC
:1002D4000C946D0101C02DC0D9010E944C023296CC
:1002E400DF010E944C02309711F40C949A01D90159
:1002F4000E944C023496FF93EF930E944C02329674
:10030400DF010E944C02FF93EF93D9010E944C023B
:10031400FA93EA93A12FEF91FF910995AF91BF91C1
:10032400E170EE0FEE0F0E2EEC91EB7FE029EC93D3
:1003340016C0133011F00C94A801D9010E944C028C
:10034400E481E47011F40C94A80101C008C0D9013F
:100354000E944C023496DF01EC91EB7FEC932E5F0C
:100364003F4F80CF0E94550224960895BA93AA93D2
:10037400E881F981AA81BB81ED93FC9324960895C9
:10038400BA93AA93AA81BB811496EC91E360EC938F
:10039400AA81BB811496EC91EB7FEC93EA81FB81FB
:1003A400FA93EA93AA81BB810E94B801A0917C01CF
:1003B400B0917D010E944C02FF93EF93A881B98113
:1003C400EF91FF9109952397EEE7F1E0E883F98334
:1003D400E3E0EA83EA81E150EA83EF5F11F40C94ED
:1003E4000902A881B9810E944C02309711F00C9443
:1003F4000302ED81FE81ED93FC93E1E023962496C4
:100404000895E881F9813296E883F983E3CF23964E
:10041400E0E024960895BA93AA93E881F981AA8129
:10042400BB811296ED93FC9324960895BA93AA93F4
:10043400A881B9810E944C0231960F01A081E88104
:10044400F981E281E095EA23D001EC93A881B98196
:100454000E944C0232960F01A081E881F981E28169
:10046400EA2BD001EC9322960895BA93AA93A8811B
:10047400B9810E944C02A081E881F981E281EA23DA
:10048400A0E00E94470222960895EA17E1E009F4E9
:10049400EE270895ED91FC91119708953A932A93CC
:1004A4001A930A9308953B812A811981088108953A
:00000001FF
