:100000000C9441000C9400000C9400000C9400002F
:100010000C9400000C9400000C94B5000C940000AB
:100020000C9400000C9400000C9400000C94000050
:100030000C9400000C9400000C9400000C94000040
:100040000C9400000C9400000C9400000C94000030
:100050000C940000DF01FD013000010030000200BF
:1000600030000400DF01FD010400600154000300C2
:1000700064015800030067015C0003006A0160002E
:100080000000F894EE27ECBBF1E0FBBFEBBFE5BF4F
:100090008DE0A2E0BB27ED938A95E9F780E094E03C
:1000A000A0E6ED930197E9F7E8E6F0E085919591F8
:1000B000009761F0A591B59105901590BF01F001F1
:1000C00005900D920197E1F7FB01F0CFEFE5EDBF51
:1000D000E4E0EEBFC0E6D1E00C946E00EFEFEABBC7
:1000E000D898D998DA98E0E0EFBDEAE0EEBDE0E01C
:1000F000EDBDECBDE7BDE6BDE3ECEBBDEFE4EABD75
:10010000E0E0E9BDE8BDE0E1E9BFA0E6B1E07DD017
:10011000EDE6F1E0FA93EA93A4E6B1E001D1E2E77B
:10012000F1E0FA93EA93A7E6B1E0FAD0E7E7F1E06D
:10013000FA93EA93AAE6B1E0F3D0EDE6F1E0FA93A0
:10014000EA93A1EDB0E030D1E2E7F1E0FA93EA936F
:10015000ADEDB0E029D1E7E7F1E0FA93EA93AEEE36
:10016000B0E022D17894FFCFFFCF0A921A92FA9290
:100170006A937A938A939A93AA93BA93EA93FA9397
:10018000EFB7EA934BD0E991EFBFF991E991B991BB
:10019000A9919991899179916991F9901990099012
:1001A0001895AA93E881E23039F4D89B02C0D89818
:1001B00001C0D89AE1E027C025C0AA93E881F0E009
:1001C000E230A0E0FA0711F4D99A1CC0E130A0E0B7
:1001D000FA0719F4D998E1E016C014C0AA93E8818F
:1001E000F0E0E230A0E0FA0761F0E130A0E0FA07C9
:1001F00011F4DA9807C0309729F4DA9B02C0DA9834
:1002000001C0DA9AE0E023960895BA93AA93E881B0
:10021000F981E0937C01F0937D01FDC00E941602FC
:100220002EE731E003E0E02F0150E03009F46CC02C
:10023000D9010E941202E481E3701E2FEE0FEF93AA
:10024000E0917C01F0917D01028013800E941202F6
:10025000DF010E941202DF01F0010995AF91EA2B44
:10026000E3701E2FD9010E9412023496DF01E12FA4
:10027000E3700E2EEC91EC7FE029EC93D9010E9403
:100280001202E481E47011F4133009F429C0D90199
:100290000E9412023296DF010E9412023097F9F09A
:1002A000D9010E9412020F01DF013496FF93EF93F0
:1002B000FD013296DF010E941202FF93EF931A9222
:1002C0000A92A12FEF91FF910995AF91BF91E17033
:1002D000EE0FEE0F0E2EEC91EB7FE029EC9311C0A8
:1002E000133031F4D9010E941202E481E47009F460
:1002F00008C0D9010E9412023496DF01EC91EB7F15
:10030000EC932E5F3F4F8FCF0E941B0256C0BA93D3
:10031000AA93E881F981AA81BB81ED93FC934DC03A
:10032000BA93AA93AA81BB811496EC91E360EC93F3
:10033000AA81BB811496EC91EB7FEC93EA81FB815F
:10034000FA93EA93AA81BB81E2DFA0917C01B0918C
:100350007D010E941202FF93EF93A881B981EF9172
:10036000FF9109952397EEE7F1E0E883F983E3E055
:10037000EA83EA81E150EA83EF5F99F0A881B981CD
:100380000E941202309739F4ED81FE81ED93FC93C7
:10039000E1E0239612C0E881F9813296E883F9837F
:1003A000E8CF2396E0E009C0BA93AA93E881F981E7
:1003B000AA81BB811296ED93FC9324960895BA937B
:1003C000AA93A881B9810E94120231960F01A081DF
:1003D000E881F981E281E095EA23D001EC93A881DC
:1003E000B9810E94120232960F01A081E881F98141
:1003F000E281EA2BD001EC930EC0BA93AA93A881B4
:10040000B9810E941202A081E881F981E281EA2388
:10041000A0E00E940D0222960895EA17E1E009F497
:10042000EE270895ED91FC91119708953A932A9340
:100430001A930A9308953B812A81198108810895AE
:00000001FF
